:0400000023EF00F0FA
:100008000682070E056E7D0EE82EFED7052EFCD75C
:1000180000F081A012EF00F014EF00F020EF00F0E4
:100028008C948C808C928C9C8C888C9A8C868C8EF0
:10003800B1EC00F0B1EC00F0F292069211008DEFF5
:1000480000F0C2EC00F0D08EF18CF292F288F28EC1
:10005800F28C8C948C808C928C8C8C988C9A8C964C
:100068008C9EA0EC00F0A0EC00F0A0EC00F002BE2A
:1000780047EF00F0025009E1030E015CD8A047EFFA
:1000880000F049EF00F061EF00F08C948C808C92C6
:100098008C9C8C988C8A8C968C9EA0EC00F08C940E
:1000A8008C808C928C9C8C888C9A8C868C8EA0EC04
:1000B80000F0A0EC00F06BEF00F08C948C808C9238
:1000C8008C9C8C988C8A8C968C9EA0EC00F08C84EE
:1000D8008C908C928C9C8C888C9A8C968C9EA0ECA4
:1000E80000F0A0EC00F0A0EC00F08C948C908C82D6
:1000F8008C9C8C888C9A8C968C9EA0EC00F0010EBF
:100108000124016E000E0220026E2DEF00F023EF95
:1001180000F09A0EF66E010EF76E000EF86E0900EA
:10012800F5CF03F00900F5CF04F0026A016A0690E2
:100138000692000125EF00F00B0ED76EDC0ED66E8E
:10014800F294850ED56EF2A4ACEF00F0AEEF00F09D
:10015800A7EF00F0000ED56E12000B0ED76EDC0E66
:10016800D66EF294850ED56EF2A4BDEF00F0BFEF07
:1001780000F0B8EF00F0000ED56E12007E0ED36EC0
:10018800000E0F015E6F000E956E000E5C6F93807F
:040198001200010050
:020000040020DA
:08000000FFFFFFFFFFFFFFFF00
:020000040030CA
:0E00000002285F3CFFD185FF0FC00FE00F40CC
:00000001FF
